:020000040800F2
:10000000C8050020A10300088D0300088F03000825
:100010009103000893030008950300080000000006
:10002000000000000000000000000000970300082E
:1000300099030008000000009B0300089D030008CE
:10004000BB030008BB030008BB030008BB03000898
:10005000BB030008BB030008BB030008BB03000888
:10006000BB030008BB030008BB030008BB03000878
:10007000BB030008BB030008BB030008BB03000868
:10008000BB030008BB030008BB030008BB03000858
:10009000BB030008BB030008BB030008952400084D
:1000A000BB030008BB030008BB030008BB03000838
:1000B00051210008BB030008E9210008BB03000828
:1000C000BB030008BB030008BB030008BB03000818
:1000D000BB030008251E00088F1F0008BB03000893
:1000E000BB030008BB030008BB03000800F002F8D4
:1000F00000F090F80AA090E8000C82448344AAF132
:100100000107DA4501D100F085F8AFF2090EBAE82F
:100110000F0013F0010F18BFFB1A43F0010318473B
:10012000943D0000B43D0000103A24BF78C878C167
:10013000FAD8520724BF30C830C144BF04680C60ED
:10014000704700000023002400250026103A28BF35
:1001500078C1FBD8520728BF30C148BF0B60704739
:100160006E2902F05385702902F0A383662903F0FB
:100170003386652903F03086672903F02D866129CF
:10018000AFF3008003681B0A28BF41F08001692992
:1001900002F01483642902F01183752902F00E83A2
:1001A0006F2902F03586782902F06F83E92902F081
:1001B000CF85E42902F0CC85F52902F0C985EF2925
:1001C00002F03286F82902F06E830368DB0928BF4B
:1001D00041F08001632903F08D80732903F0928040
:1001E000E32903F09D80F32903F0A28000207047EB
:1001F0001FB503F0F3F804000020002103F0D6FD42
:10020000401C60600020002103F0BAFDE0601FBDCB
:1002100010B510BD03F0B4F81146FFF7E9FF01F087
:1002200080FC03F08DF903B4FFF7F2FF03BC01F08B
:10023000DAFE00000CB500224C48009201920168E1
:1002400041F4803101604FF4A063016801F4003192
:1002500001910099491C0091019911B900999942A5
:10026000F3D10168890333D50121019140490A681E
:1002700042F010020A600A6822F003020A600A686B
:1002800042F002020A604168416041684160416891
:1002900041F480614160416821F47C114160416812
:1002A00041F4E8114160016841F08071016001682A
:1002B0008901FCD5416821F003014160416841F0AA
:1002C000020141604168C1F381010229FAD10CBDEC
:1002D00001920CBD254810B5016841F00101016093
:1002E0004168244A114041600168234A114001607D
:1002F000016821F480210160416821F4FE01416020
:100300004FF41F018160FFF795FF1C494FF000601B
:10031000086010BD154A10B55068194B10F00C015B
:10032000184803D0042901D0082901D0036012E045
:100330005168536801F470114FF0020413F4803FC8
:1003400004EB914102D053689B0301D50E4B00E0B2
:100350000B4B5943016051680A4AC1F30311121D46
:10036000515C0268CA40026010BD000000100240EB
:10037000002002400000FFF0FFFFF6FE08ED00E065
:1003800000127A000000002000093D007047FEE7DF
:10039000FEE7FEE7FEE770477047704770470000D2
:1003A0000948804709480047FEE7FEE7FEE7FEE709
:1003B000FEE7FEE7FEE7FEE7FEE7FEE70448054945
:1003C000034A054B70470000D5020008ED00000805
:1003D000C8030020C8050020C8030020284908439E
:1003E00028490860704730B50F23C278017801258D
:1003F000F2B1244A126801F1E02102F4E062C2F590
:10040000E062120AC2F10404D3404278A240847828
:100410001C401443220181F80024007800F01F01E1
:100420008D404009800000F1E020C0F8005130BD4F
:1004300001F01F0085404809800000F1E020C0F86D
:10044000805130BD104A114001430E48001F016029
:1004500070470C4A121D0029116801D0014300E0C9
:100460008143116070474FF0E0210428086903D0F0
:1004700020F004000861704740F00400FAE7000033
:100480000000FA050CED00E080FFFF1F8F4910B55A
:10049000884206D10121042000F049FA00210420FD
:1004A0003BE08B49884206D10121082000F03FFA49
:1004B0000021082031E08749884206D1012110201F
:1004C00000F035FA0021102027E08349884206D148
:1004D0000121202000F02BFA002120201DE07F497F
:1004E000884206D10121402000F021FA002140205D
:1004F00013E07B49884206D10121802000F017FAE1
:100500000021802009E0774988420AD18415012121
:10051000204600F00CFA00212046BDE8104000F013
:1005200006BA10BD10B50121084600F000FA0021FE
:10053000BDE81040012000F0FAB9F0B5CC780022F7
:1005400004F00F03E40601D58C7823430C784FF0B8
:100550000F0C14F0FF0F4FF0010E1BD005680E8832
:100560000EFA02F42640A64210D196000CFA06F7C5
:1005700025EA070703FA06F5CE783D43282E02D078
:10058000482E02D002E0446100E00461521C082AB7
:10059000E5D305600A88FF2A1CD94468002202F1CD
:1005A00008060EFA06F50E882E40AE420ED19600D1
:1005B0000CFA06F7BC4303FA06F7CE783C43282E24
:1005C00000D14561CE78482E00D10561521C082A21
:1005D000E5D34460F0BD4FF6FF71018002218170C8
:1005E0000421C17070470246002092680A4200D080
:1005F00001207047806880B2704702460020D268B0
:100600000A4200D001207047C06880B27047016183
:100610007047416170470AB101617047416170479D
:10062000C160704741F48032826181618261816979
:10063000806970472C4B10B51A684FF680742240C1
:1006400042EA00100843186010BD2849C86170478D
:10065000F0B5254C002801DAE36900E06368450D38
:100660002E0185B2C0F30157B540C0F30342032FFA
:1006700005D0C6020AD503269640B34307E023F00F
:100680007062636823F07063636002E0AB4343F021
:10069000706201B12A43002801DAE261F0BD6260B4
:1006A000F0BD10B58A0721F003040F49120F214451
:1006B0000F238C6893409C438C608B68904003436D
:1006C0008B6010BD0949C1F8DC007047000801408B
:1006D000000C0140001001400014014000180140CE
:1006E000001C0140002001400000014000002042A9
:1006F000A548016841F0010101604168A34A114029
:1007000041600168A24A11400160016821F4802122
:100710000160416821F4FE0141604FF41F018160D6
:10072000704799490A6822F480320A600A6822F404
:1007300080220A60B0F5803F07D0B0F5802F03D14A
:10074000086840F4A02008607047086840F48030D2
:10075000F9E70346002059098B4A01290AD00229EA
:100760000AD0516A03F01F02012393400B4200D0CC
:10077000012070471168F5E7116AF3E718B500200A
:100780004FF4A06400903120FFF7E3FF0099491C6B
:100790000091A14201D00028F5D03120FFF7D9FF08
:1007A000002800D0012018BD774A116821F0F80117
:1007B00041EAC00010607047764908607047724B8C
:1007C0005A68084322F47C121043586070477149FC
:1007D000086670476C4A516821F00301014351607B
:1007E00070476948406800F00C007047664A5168DD
:1007F00021F0F001014351607047634A516821F4D0
:10080000E0610143516070475F4A516821F46051D3
:1008100041EAC000506070475B4A0029517A01D01C
:10082000014300E08143517270475A49C1F8D80032
:100830007047554A516821F4404101435160704767
:100840005149002281F8202081F82020012802D07F
:10085000042802D1052081F8200070474E49086025
:10086000704749490A6A02430A6270474A49443953
:100870000860704730B5444A5168484B11F00C018C
:1008800003D0042901D0082901D0036012E0516887
:10089000536801F470114FF0020413F4803F04EB2D
:1008A000914102D053689B0301D53D4B00E03B4B87
:1008B0005943016051680F2303EA1111394B5C5C05
:1008C0000168E14041605468072505EA14241C5D75
:1008D00021FA04F48460546805EAD4241B5DD940ED
:1008E000C1605268032303EA92322E4B1B1F9A5CAD
:1008F000B1FBF2F1016130BD234A0029516901D0F9
:10090000014300E08143516170471F4A002991690A
:1009100001D0014300E08143916170471A4A0029E8
:10092000D16901D0014300E08143D1617047164A8B
:100930000029D16801D0014300E08143D1607047B4
:10094000114A0029116901D0014300E0814311617E
:10095000704711494039086070470E49C8647047B4
:100960000949C87170470848416A41F08071416285
:100970007047054A0146002092680A4200D00120D3
:100980007047014988727047001002400000FFF86C
:10099000FFFFF6FE000042428004424200127A004D
:1009A00000093D0018000020C44910B588420AD152
:1009B00001218C032046FFF7BAFF2046BDE8104016
:1009C0000021FFF7B4BFBE49884202D101214C0487
:1009D00010E0BC49884202D101218C040AE0BA49E6
:1009E000884202D10121CC0404E0B84988420AD1EE
:1009F00001210C052046FFF7A3FF2046BDE810406B
:100A00000021FFF79DBF10BD30B50446008A85B0B8
:100A10000D464CF6FF710840E98801432182A08908
:100A20004EF6F3110840A9882A8911436A890243C6
:100A30001143A181A08A4FF6FF410840A9890143D3
:100A4000A1826846FFF716FF9C48844201D10398B3
:100A500000E00298A189090400EBC00101EB00103D
:100A6000296801D5490000E08900B0FBF1F064225B
:100A7000B0FBF2F109010B096FF018056B4300EBB5
:100A80008300A3891D044FF0320306D503EBC00099
:100A9000B0FBF2F000F0070005E003EB0010B0FB44
:100AA000F2F000F00F000843208105B030BD4FF494
:100AB0001651016000218180C18001810C22428198
:100AC0008181704710B5028A4FF2FF031A400B88EC
:100AD0004C8823438C88C9880C43234313430382E7
:100AE00010BD0021018041808180C18070470029B4
:100AF000818902D041F4005101E021F4005181814B
:100B0000704710B5C1F3421301F01F040121A14049
:100B1000012B07D0022B07D01430002A026805D021
:100B20000A4304E00C30F8E71030F6E78A4302602D
:100B300010BD002A828A01D00A4300E08A438282E3
:100B40007047028A22F00F020282028A0A4302825E
:100B50007047828922F40062828182890A438281FD
:100B600070470029818902D041F0020101E021F0A3
:100B7000020181817047028A22F020020282028AE9
:100B80000A43028270470029018A02D041F4804161
:100B900001E021F4804101827047C1F308018180A6
:100BA00070478088C0F308007047818941F00101D7
:100BB00081817047028BD2B20283028B42EA01210B
:100BC00001837047028B02F47F420283028B0A4347
:100BD000028370470029818A02D041F0200101E0A0
:100BE00021F02001818270470029818A02D041F0E2
:100BF000100101E021F01001818270470029818AF3
:100C000002D041F0080101E021F008018182704723
:100C10000029818902D041F4004101E0C1F30E01B5
:100C2000818170470029818A02D041F4006101E08E
:100C300021F4006181827047828A22F0040282825C
:100C4000828A0A43828270470029818A02D041F059
:100C5000020101E021F0020181827047024600207A
:100C600012880A4200D001207047C94301807047B2
:100C700070B501F01F0501260024C1F3421306FAE6
:100C800005F2012B0FD0022B0FD0838A4FEA1121DE
:100C90000088134206FA01F600EA060001D000B10E
:100CA0000124204670BD8389F0E7038AEEE70A0A33
:100CB00001219140C9430180704700000038014084
:100CC0000044004000480040004C004000500040FC
:100CD000374900200860091D0860091D0860091DCA
:100CE00008603349334814310860704730B5304AE2
:100CF0008379016853B313688B431360111D0B682C
:100D00000468A3430B60017911440B680468234312
:100D10000B60274B083319680468A14319601C1D38
:100D200021680568A94321604179102905D0114443
:100D30000A68006802430A6030BD196802681143FE
:100D40001960216800680143216030BD00791044BA
:100D500002688A43026030BD0021016001710C22EB
:100D6000427181717047124910310A6802430A606A
:100D7000704701460E4A0020143212680A4200D021
:100D8000012070470A49143108607047084A01463B
:100D900000201268064B0A4014331B680B4202D035
:100DA000002A00D0012070470149143108607047C3
:100DB00000040140FFFF0F00994910B588420AD195
:100DC000841401212046FFF7B2FD2046BDE8104003
:100DD0000021FFF7ACBD9349884202D101210414E0
:100DE00004E0914988420AD10121C4132046FFF74B
:100DF000A7FD2046BDE810400021FFF7A1BD10BDB2
:100E000030B502884C8802F441530A88CD882243C9
:100E10008C882C4322430C8922434C8922438C89A1
:100E20002243CC8922431A430280828B22F400623F
:100E30008283098A018230BDF0B505460C46022046
:100E40000021AA8B85B001264FF240031A40AA83E5
:100E50002884AF8BA268022A21D0A08800B1022684
:100E60006846FFF707FDE1880098B1F5007F2CD0B8
:100E70007101B0FBF1F000EB8000A1684000B0FB15
:100E8000F1F0401D80B20A21B0FBF1F000F0010149
:100E9000401A4FF6FF72C0F34F0002EA0121821E92
:100EA000FE2A01D302200021E288084302432A845B
:100EB00020886188A2890843A188114308433843E8
:100EC00040F40060A88305B0F0BD000AD3E700211C
:100ED000018041808180C180018141818181C18106
:100EE0000721018270470021018041808180C180FB
:100EF00002228260818170470029018802D041F07E
:100F0000400101E021F04001018070470029818B00
:100F100002D041F4806101E021F480618183704757
:100F2000090901238B40002A828899B201D00A4323
:100F300000E08A4382807047002A828801D00A43F9
:100F400000E08A43828070478181704780897047C2
:100F5000A1F57E420188FF3A02D041F4807101E0A0
:100F600021F48071018070470029818802D041F00E
:100F7000040101E021F0040181807047028822F41D
:100F80000062028002880A4302807047018841F4AF
:100F90008051018070470029018802D041F400513E
:100FA00001E021F4005101807047012901D0008B3C
:100FB0007047808A7047008A7047B1F5804F01887A
:100FC00003D021F480410180704741F48041FAE769
:100FD0000246002012890A4200D001207047C9430E
:100FE0000181704730B501F00F030125024605FA73
:100FF00003F40020A3B2090905FA01F49188A4B210
:10100000128921401A4202D0002900D0012030BDAF
:1010100001F00F0201219140C94301817047000096
:101020000030014000380040003C0040F94910B554
:10103000884202D10121C41486E0B0F1804F09D06A
:10104000F54988420DD101210220FFF779FC0021EA
:10105000022064E001210846FFF772FC0021012014
:101060005DE0EE49884206D101210420FFF768FCCB
:101070000021042053E0EA49884206D101210820DA
:10108000FFF75EFC0021082049E0E649884206D1CE
:1010900001211020FFF754FC002110203FE0E2491D
:1010A000884206D101212020FFF74AFC00212020A0
:1010B00035E0DE49884202D10121441444E0DC4994
:1010C000884202D10121CC043EE0DA49884202D1B3
:1010D00001210C0538E0D849884202D101214C0594
:1010E00032E0D649884206D101214020FFF728FC92
:1010F0000021402013E0D249884206D101218020FE
:10110000FFF71EFC0021802009E0CE4988420AD169
:10111000841501212046FFF713FC00212046BDE87D
:101120001040FFF70DBCC849884202D101210C04D0
:101130000AE0C649884202D101214C0404E0C449B6
:1011400088420AD101218C042046FFF7F0FB20469B
:10115000BDE810400021FFF7EABB10BD30B50288A2
:10116000AC4CB24DA0420DD0A8420BD0B0F1804F94
:1011700008D0A94B984205D0A84B984202D0A84B62
:10118000984203D122F070034A881A43A54B984233
:1011900006D0A54B984203D022F44073CA881A4364
:1011A00002808A8882850A880285A0420AD0A842E5
:1011B00008D0A54A904205D0A44A904202D0A44A41
:1011C000904201D1097A01860121818230BD30B57A
:1011D000028C22F001020284028C8388048B22F0AC
:1011E000020224F073050C882C430D8915434A88AC
:1011F0002A43884DA8420BD08C4DA84208D0924D6E
:10120000A84205D0914DA84202D0914DA8420DD1DF
:1012100022F008054A8923F440732A4322F004058A
:101220008A882A438D891D43CB892B43838004837D
:10123000C9888186028430BD70B5028C22F010020C
:101240000284028C8388048B0D8824F4E6464FF6D2
:10125000FF7404EA052535430E8922F0200204EAD2
:10126000061616434A8804EA02123243694EB04217
:1012700002D06E4EB04215D122F080064A8923F486
:10128000406304EA0212324322F040068A8804EAEC
:10129000021232438E8904EA86061E43CB8904EA91
:1012A0008303334383800583C9880187028470BD2B
:1012B00070B5028C22F480720284028C8388848B45
:1012C0000D8824F0730425430E894FF6FF7422F431
:1012D000007204EA062616434A8804EA02223243D0
:1012E0004C4EB04202D0514EB04215D122F40066AD
:1012F0004A8923F4405304EA0222324322F48066EE
:101300008A8804EA022232438E8904EA06161E43C2
:10131000CB8904EA0313334383808583C98881879B
:10132000028470BD70B5028C22F480520284058C58
:101330008288838B0C8823F4E6464FF6FF7303EA1A
:101340000424344325F400560D8903EA053535435A
:101350004E8803EA06362E432E4DA84202D0334D66
:10136000A84205D122F480458A8903EA82122A43E1
:1013700082808483C988A0F84010068470BD828B67
:1013800022F440628283828B4FF6FF7303EA0121CD
:101390000A4382837047828B22F00C028283828B05
:1013A0000A4382837047028B22F440620283028BDD
:1013B0004FF6FF7303EA01210A4302837047F0B539
:1013C000048C24F010040484078B048C4FF6FF7502
:1013D00027F4734705EA03333B4305EA02221A4325
:1013E0000C4B05EA011698420ED0104B98420BD0D8
:1013F000B0F1804F08D0084B984205D0074B984277
:1014000002D0074B984225D124F02001314341F00E
:10141000100124E0002C01400004004000080040BE
:10142000000C004000100040001400400034014057
:10143000004C0140005001400054014000180040A1
:10144000001C0040002000400040014000440140DA
:101450000048014024F0A0030B4343F01001028335
:101460000184F0BD028B22F00C020283028B0A433E
:101470000283704770B5048C24F001040484058B4A
:10148000048C4FF6FF7606EA0313134325F0F305A9
:10149000F84A2B4390420ED0F74A90420BD0B0F15D
:1014A000804F08D0F54A904205D0F54A904202D0CC
:1014B000F44A904202D124F0020201E024F00A0230
:1014C0000A4342F001010383018470BD2DE9F84F06
:1014D0000D4604460888E74FDFF89CC3DFF89C837D
:1014E000DFF89C934988AA882B894FF0804A48B33B
:1014F00004282FD04FF6FF760828934632D0208C50
:101500009E4620F480502084A38B208C06EA013272
:10151000009223F4734306EA0B221A4306EA0E33C1
:101520001343BC420AD0644508D0544506D0444514
:1015300004D04C4502D0D34A944242D120F400500A
:10154000009940E02046FFF795FFE9882046BDE876
:10155000F84F87E72046FFF732FFE9882046BDE8CD
:10156000F84F20E7208C20F480702084B4F81CE031
:10157000208C06EA031306EA01222EF0F30E43EA5A
:101580000B0343EA0E030092BC420AD0644508D024
:10159000544506D0444504D04C4502D0B94A944243
:1015A00003D120F40070009901E020F4206008438A
:1015B00040F48070A3832084E9882046BDE8F84F7A
:1015C000E9E620F40240084340F48050A3832084DD
:1015D000E9882046BDE8F84FD1E62DE9F0410C46F8
:1015E000002649880746012501B90226A288012A5A
:1015F00000D10225208823890028384610D0FFF723
:10160000DEFEE1883846FFF7CEFE23892A463146C2
:101610003846FFF72FFFE1883846BDE8F04121E763
:10162000FFF728FFE1883846FFF71CFF23892A4689
:1016300031463846FFF7C3FEE1883846BDE8F04141
:10164000B1E610B50A884B88CC881A438B882343AF
:101650001A430B891A434B8989891A430A43A0F814
:10166000442010BD4FF6FF71818000210180C180B0
:101670004180017270470021018041808180C180DA
:10168000018141818181C1817047002101804180B8
:1016900001228280C1800181704700210180418048
:1016A0008180C18001814181818170470029018849
:1016B00002D041F0010101E021F0010101807047F9
:1016C000002930F8441F02D041F4004101E0C1F389
:1016D0000E0101807047002A828901D00A4300E090
:1016E0008A4382817047818270471143A0F8481075
:1016F0007047002A828901D00A4300E08A43828130
:101700007047018921F0070101817047028922F0A9
:1017100070020A430281704700B50346FFF7F6FFE7
:10172000188940F00700188100BD70B516460D46B7
:10173000602904464FF0010231460AD0FFF79AFEB5
:1017400029462046FFF7E2FF208940F0070020816C
:1017500070BDFFF734FEF3E730B504894FF6FF752F
:1017600005EA03231343E4B20B432343038130BD53
:1017700010B50446FFF7F0FF208940F07700208184
:1017800010BD10B50446FFF7E7FF208940F4804004
:10179000208110BD018582827047028822F070028C
:1017A0000A430280704770B50589048B068C25F0CA
:1017B00007050D434FF6FC410C4040F201110C436C
:1017C0004FF6FF7101EA031126F02206114331435F
:1017D00005810483018470BD028B22F070020A43EC
:1017E00002837047028B4FF6FF7322F4E04203EA54
:1017F0000121114301837047828B22F070020A435A
:1018000082837047828B4FF6FF7322F4E04203EA33
:1018100001211143818370470029018802D041F0E2
:10182000800101E021F0800101807047002981885A
:1018300002D041F0040101E021F0040181807047F1
:101840000029818802D041F0080101E021F008015F
:10185000818070470029818802D041F0010101E0B8
:1018600021F0010181807047028B22F008020A43B7
:1018700002837047002C0140003401400004004006
:1018800000080040000C0040028B4FF6FF7322F46A
:10189000006203EA012111430183EAE7828B22F00F
:1018A00008020A438283E4E7828B4FF6FF7322F437
:1018B000006203EA012111438183DAE7028B22F0FF
:1018C00004020A430283D4E7028B4FF6FF7322F42B
:1018D000806203EA012111430183CAE7828B22F06F
:1018E00004020A438283C4E7828B4FF6FF7322F41B
:1018F000806203EA012111438183BAE7028B22F05F
:1019000080020A430283B4E7028B4FF6FF73C2F3EF
:101910000E0203EA012111430183AAE7828B22F020
:1019200080020A438283A4E7828B4FF6FF73C2F3DF
:101930000E0203EA0121114381839AE7028C22F00F
:1019400002020A43028494E7028C22F008020A434E
:1019500002848EE7028C4FF6FF7322F0200203EA26
:1019600001111143018484E7028C4FF6FF7322F0CA
:10197000800203EA0111114301847AE7028C4FF6D9
:10198000FF7322F4007203EA01211143018470E71E
:10199000028C4FF6FF7322F4006203EA0121114327
:1019A000018466E7028C4FF6FF7322F4005203EACB
:1019B0000131114301845CE710B50123048C8B4095
:1019C0009C430484038C8A401343038410BD10B5E8
:1019D0000423048C8B409C430484038C8A4013436F
:1019E000038410BD30B50124058C00F118038C4030
:1019F000A543058489B108290FD0091FC1F34E0002
:101A00001844016821F4E041016001684FF6FF735A
:101A100003EA02221143016030BD03EB510001686B
:101A200021F0700101600168F4E70029018802D00B
:101A300041F0020101E021F00201018019E70029D3
:101A4000018802D041F0040101E021F0040101808D
:101A50000FE70029818802D041F0800101E021F0E8
:101A60008001818005E7028822F008020280028856
:101A70000A430280FDE6828822F07002828082881A
:101A80000A438280F5E6028922F007020281028978
:101A90000A430281EDE6028922F080020281028976
:101AA0000A430281E5E68184E3E68185E1E68186F9
:101AB000DFE60187DDE68187DBE6A0F84010D8E6A7
:101AC000028822F44072028002880A430280D0E633
:101AD000808ECEE6008FCCE6808FCAE6B0F840005C
:101AE000C7E6808CC5E6008DC3E602460020128A58
:101AF0000A4200D00120BCE6C9430182B9E6024691
:101B00000020138A92890B4202EA010202D0002AC5
:101B100000D00120ADE6C9430182AAE6000200120E
:101B2000704790B0AA208DF800008DF80100F120D8
:101B30008DF8020008208DF80300FEF7CBFB00F0C3
:101B4000B3F8642000F0DEF84FF4E13000F01AF949
:101B5000DFF814816A464349404600F065FB41487E
:101B600001228021001FFEF7E4FF00F09BFB3F4DA8
:101B70000127C5F8A8710026C5F8AC6100F028FC63
:101B800013E03BA000F00EFE012000F0D2F8D5F8E3
:101B90008401002862D00020C5F88401D5F88801AE
:101BA00000285DD00020C5F88801002000F083FDEA
:101BB0000028E6D134A000F0F5FD012000F0B9F8CE
:101BC000C5F88471C5F888714FF4E15142F2107084
:101BD00000F086FA3148016841F480710160304DAF
:101BE00028780028FCD02F48C1780279090441EAFE
:101BF000022241790A438179C3790904007A41EAD2
:101C00000321014310020012020E8DF80420020C81
:101C10008DF80520020A09028DF8062009128DF8B8
:101C20000700080E8DF80800080C8DF80900080A56
:101C30008DF80A008DF80B10002069460A5C401CE4
:101C40002244C0B2D4B20C28F8D38DF80C400D2138
:101C5000404600F01AFB2E700024C1E701209BE7EC
:101C60000120A0E7043801404400024000802142E6
:101C700031323932BCC4B4E6C6F7C9E8D6C3CAA704
:101C8000B0DC0D0A00000000BCC4B4E6C6F7C9E829
:101C9000D6C3B3C9B9A60D0A000000000004014074
:101CA000350000205D03002010B56FF00400FEF742
:101CB000DAFB314831490068B0FBF1F03049C0B27D
:101CC00000EB40020870C2EBC0104FF6FF7202EA50
:101CD000C000488010BD2A49097848434FF0E021F0
:101CE000486100238B61086940F0010008610869C0
:101CF000C20701D0C003FAD5086920F001000861CD
:101D00008B6170471E49498848434FF0E021486184
:101D100000238B61086940F0010008610869C2076F
:101D200001D0C003FAD5086920F0010008618B6179
:101D3000704710B50446642044432046FFF7E2FF95
:101D40002046FFF7DFFF2046FFF7DCFF2046FFF7C6
:101D5000D9FF2046FFF7D6FF2046FFF7D3FF2046E6
:101D6000FFF7D0FF2046FFF7CDFF2046FFF7CAFF61
:101D70002046BDE81040C5E70000002000127A00B0
:101D80002800002030B5044687B0012144F2040049
:101D9000FEF7BBFD4FF40070ADF8100003208DF886
:101DA00012001820954D8DF8130004A92846FEF75F
:101DB000C4FB2815ADF8100004208DF8130004A909
:101DC0002846FEF7BAFB4FF4A060FEF707FB25207C
:101DD0008DF8140001218DF815108DF816108DF86E
:101DE000171005A8FEF7FFFA0020ADF804000094D4
:101DF000ADF80600ADF80800ADF80C000C20804CE2
:101E0000ADF80A0069462046FEF7FEFD002240F2CA
:101E100025512046FEF775FE01212046FEF767FE9C
:101E200007B030BD70B5764C40F225512046FEF724
:101E30001FFF00281CD02046FEF7B3FE714AC1B236
:101E40001088030414D444044FF0000304D50A2975
:101E50000DD140F400400EE00D290AD0C0F30D046E
:101E6000694D401C80B229551080FE2800D913808E
:101E700070BD40F48040108070BD70B5054686B0DE
:101E800001210420FEF741FD01214804FEF746FD33
:101E90000424ADF8104003208DF812001820574E8E
:101EA0008DF8130004A93046FEF747FB0820ADF873
:101EB00010008DF8134004A93046FEF73EFB4FF4A6
:101EC000A060FEF78BFA26208DF8140000248DF810
:101ED000154001208DF816008DF8170005A8FEF7B3
:101EE00082FAADF80440ADF80640ADF80840ADF810
:101EF0000C400C20454CADF80A0000956946204680
:101F0000FEF782FD002240F225512046FEF7F9FD42
:101F100001212046FEF7EBFD06B070BD2DE9F04132
:101F200015460E46074600240BE040213846FEF7D2
:101F300095FE0128F9D1315D3846FEF72EFE641C6E
:101F4000E4B2AC42F1D3BDE8F0810FB430482DE9E2
:101F5000F04107AA069900F013FC2D4800F078FD27
:101F600085B20024294E2A4F0BE040213046FEF76F
:101F700075FE0028F9D0395D3046FEF70EFE641C70
:101F8000A4B2AC42F1D3BDE8F0015DF814FB70B52A
:101F90001E4C40F225512046FEF76AFE00281DD057
:101FA0002046FEF7FEFD174AC1B25088030415D43F
:101FB00044044FF0000304D50A290ED140F4004038
:101FC0000FE00D290BD0C0F30D040F4D401CFF3561
:101FD00080B229555080FE2800D9538070BD40F44E
:101FE0008040508070BD704705490A885206FCD574
:101FF000034AC1B2121D1180704700000008014061
:10200000003801402C000020540000200044004013
:102010005202002010B586B001210820FEF775FCA1
:1020200001218803FEF77AFC4FF46040ADF81400FC
:1020300018208DF8170003208DF8160005A92648F2
:10204000FEF77BFA0020ADF800004FF48271ADF886
:102050000210ADF804000121ADF80C00ADF8060047
:10206000ADF80810ADF80E00490207201B4CADF882
:102070000A10ADF8100069462046FEF7C1FE0121A6
:102080002046FEF739FF06B010BD70B506460024A5
:10209000124D03E0641CE4B2C82C0FD8022128467C
:1020A000FEF796FF0028F5D031462846FEF74CFF94
:1020B000002405E0641CE4B2C82C01D9002070BDE6
:1020C00001212846FEF784FF0028F3D02846FEF7BA
:1020D0003DFFC0B270BD0000000C01400038004060
:1020E0007FB50C46054601210846FEF717FC641E25
:1020F0006D1EADF800400020ADF80450ADF80600AC
:10210000ADF802004FF0804469462046FFF726F8FC
:102110004FF4A060FEF762F91C218DF80C1002202C
:102120008DF80D0001218DF80E108DF80F1003A809
:10213000FEF759F901212046FFF7EDFC0122114677
:102140002046FFF7C8FA01212046FFF7AFFA7FBD0E
:1021500010B501218C072046FFF7D1FC00280AD0DA
:1021600001212046FFF7D7FC2C49D1F8840118B192
:102170000020C1F8840110BD0120FAE77FB50C46AC
:10218000054601210420FEF7C9FB641E6D1EADF853
:1021900000400020ADF80450214CADF80600ADF829
:1021A000020069462046FEF7D9FF4FF4A060FEF713
:1021B00015F91E208DF80C0001218DF80D108DF8F9
:1021C0000E108DF80F1003A8FEF70DF9012120461F
:1021D000FFF7A1FC012211462046FFF77CFA0121FE
:1021E0002046FFF763FA7FBD10B50D4C0121204654
:1021F000FFF785FC002810D001212046FFF78BFC5B
:102200000849086840F400720A6000212046FFF780
:102210004DFA034900202431088010BD008021427E
:10222000000800400004014070B504461C480E46FA
:102230001546416941F0010141610A20FFF762FD45
:10224000A660E56000202060206820602068206093
:1022500020682060206840F0100020602068206026
:1022600020682060206840F08000206020682060A6
:10227000206820602068206020682060206820603E
:10228000206820602068206070BD026822F0010292
:1022900002604160016841F0010101607047000087
:1022A0000010024008B501210820FEF72EFB40F681
:1022B0000640ADF8000010208DF8030002208DF8D4
:1022C000020069460448FEF738F904480021C0F8C6
:1022D0008411C0F8881108BD000C01400080214223
:1022E000FFF7D3BE2DE9F041F94F05460020144613
:1022F0000E46C7F8B0016420FFF7EDFC2846FFF753
:10230000C4FE6420FFF7E7FC701EC0B2FFF7BDFEFD
:1023100068064FF0000509D415E06420FFF7DBFCE8
:102320002078FFF7B2FE6D1CEDB2641CB542F4D309
:102330000BE06420FFF7CFFC0020FFF7D1FF6D1CFE
:1023400004F8010BEDB2B542F3D36420FFF7C3FCF0
:102350000120C7F8B001BDE8F08170B5DC4D002167
:102360000446C5F8B011642005F5D875FFF7B3FC35
:102370002046FFF78AFE6420FFF7ADFC01202860AD
:1023800070BD3EB51120FFF7E8FF6420FFF7BAFCEF
:102390000620FFF7E2FF0120FFF7CBFC1120FFF73B
:1023A000DCFF6420FFF7AEFC6A460C212020FFF71B
:1023B00099FFC8A000F0F6F900246D4621462A5D79
:1023C000C9A000F0EFF9641CE4B20C2CF6D33EBDBA
:1023D0007FB501210D20FEF798FAFFF71BFE4FF4A1
:1023E0008075ADF8005048208DF803006946C0485C
:1023F000FEF7A3F82801ADF8000001248DF8024093
:1024000010218DF803106946BA48FEF796F8284661
:10241000FEF7CAFC08210020FEF743F900208DF8E2
:1024200008000C208DF8090001958DF80A4001A8DC
:10243000FEF75CFC4FF4A060FDF7D0FF17208DF88D
:102440000C008DF80D408DF80E408DF80F4003A85C
:10245000FDF7C9FFA848016821F4807101609C481C
:10246000C0F8B041FFF78DFF7FBD70B5984E0546AF
:102470000020C6F8B00104460020FFF731FF641CBD
:10248000E4B205F8010B092CF6D30120C6F8B0011F
:10249000002070BD984810B50068C0050ED597485B
:1024A000D0F82001002809D14FF48070FEF77CFCA1
:1024B0009348FFF7DAFF93490120487010BD904818
:1024C00010B50C388F4A73210170127842708D4A12
:1024D00000210F321378547841EA831343EA4413FE
:1024E000947843EA0413D478127943EAC40343EAA4
:1024F000420242F0810282701022C270814A921C14
:102500001378547841EAC313927843EA04131343CF
:102510007C4A0371521D1378547841EAC3139278B0
:1025200043EA04131343774A4371143213785478FF
:1025300041EA431343EA0413947843EAC403D4788A
:1025400043EA84031479527943EA4403134343F082
:10255000C00282716B4A1A321378547841EA4313ED
:1025600043EA0413947843EAC403D47843EA840327
:102570001479527943EA44031343C3710172614AE7
:102580000B321378547841EAC31343EA84139478E6
:10259000D27843EA8403134343F002024272594A59
:1025A0000832137841EAC3115378927841EA8301E3
:1025B00041EA420141F0010181720C21C17210BD5A
:1025C000FEB50025FFF77BFF4D4E0B210C3E721C24
:1025D0004120FFF787FE0A20FFF794FB6A460C2193
:1025E0002020FFF77FFE0A20FFF78CFB46A000F0BB
:1025F000D9F800242146325D3BA000F0D3F8641CDA
:10260000E4B20C2CF6D344A000F0CCF800246F46C2
:10261000305D3A5D904205D044B1082C06D00B2CB9
:1026200004D00125214630A000F0BCF8641CE4B2BF
:102630000C2CEDD325B13BA000F0B4F82846FEBD2C
:102640003CA0F9E72F4910B50F31012008710D3971
:1026500005208870C91C00248870FFF7B1FF00B105
:1026600001240A20FFF74EFB204610BD254910B576
:102670000F3100240C710D3901208870C91C88703D
:10268000FFF79EFF00B101240A20FFF73BFB204625
:1026900010BD1C4810B50F30002404710D38847033
:1026A000C01C8470FFF78CFF00B101240A20FFF7E3
:1026B00029FB204610BD70B504460A20FFF722FB17
:1026C00024B1012C43D0022C44D146E03CE0000070
:1026D00000802142726561642064656661756C7476
:1026E000205245473A0D0A0025642025780D0A003E
:1026F00000080140000C014000040140000021429C
:102700005D030020340000205752495445205245B3
:10271000473A0D0A00000000524541442052454707
:102720003A0D0A0052454720777269746520657238
:10273000720D0A00524547207772697465207375DF
:1027400063636573730D0A00FFF7A3FF01E0FFF7F2
:1027500079FF054625B1012070BDFFF787FFF8E737
:102760001020FFF7FAFD0A20FFF7CCFA0820FFF748
:10277000F4FD0A20FFF7C6FA002070BD7047000084
:102780001CB50C46064B7B4469460090204600F081
:1027900056FA04460020694600F064FA20461CBD43
:1027A000DB0400000FB4044910B503AA029800F03E
:1027B0005FFA10BC5DF814FB300000202DE9F041F9
:1027C0000646002410687529314616A510D000F081
:1027D00089F9002802DA404213A507E031688A0728
:1027E00001D512A502E0490704D511A5012401E095
:1027F00000F081F900210A2206F1240709E0B0FB6C
:10280000F2FCB0FBF2F302FB1C00303078541846A7
:10281000491C0028F3D123462A463046BDE8F04142
:1028200000F09BB9000000002D0000002B0000000C
:1028300020000000F0B40D460188090502D5214CA6
:102840007C4402E01F4C7C440E34002100F124063D
:1028500008E002F00F071209E75D42EA03721B0964
:102860007754491C52EA0307F3D102780023120778
:1028700004D5702D06D009B1022311342246F0BCD4
:1028800000F06BB901231034F8E770B504460D462B
:102890002146106800F02FF9024629462046BDE87F
:1028A00070400023C6E7D21D22F00703D3E90023BE
:1028B000C0E70368126843F0200303600823C36184
:1028C0000023B7E7981500002DE9F05F894604461C
:1028D0004FF0000ADFF874B1FB44C0F820A0204696
:1028E000E1688847002874D0252806D0D4E9012162
:1028F0009047206A401C2062F1E700265F46204690
:10290000E16888472028054607DB312D05D2781974
:1029100010F8200C08B10643F1E7B00701D526F006
:102920000406C4F81CA00027C4F818A02A2D09D05A
:10293000284601F01EFA38B304EB8708303DC8F88A
:10294000185019E059F8041B204604EB87029161E6
:10295000E1688847012F054618D1E069002820DA90
:1029600026F020061DE0D8F8180000EB800005EBEB
:1029700040003038C8F818002046E168884705460E
:1029800001F0F7F90028EED1012F0AD02E2D08D141
:102990002046E16888477F1C0546022F46F0200646
:1029A000C4DBA069002803DA404246F00106A061BA
:1029B000F00701D026F010066C2D0BD0682D09D041
:1029C0004C2D39D06A2D35D0742D35D07A2D33D099
:1029D00016E038E0E1682F4620468847B8420546B1
:1029E00009D16C2F26D04FF48060E1680643204661
:1029F0008847054604E06C2F1AD04FF480700643D8
:102A00000DB3A5F14100192802D8203546F400661F
:102A10004A462946204626604E46FDF7A1FB80B176
:102A200001280BD0F61D26F0070000F1080956E733
:102A30004020E4E78020D8E70020D6E706F104092B
:102A40004DE7284652E7206ABDE8F09F28150000B0
:102A500010B5431C02E010F8011B71B18107FAD1D7
:102A60004FF0013202C88C1A8C4314EAC211F9D01B
:102A7000C01A0A0603D0C01E10BDC01A10BD0A0439
:102A800001D0801E10BD0902FCD0401E10BD704751
:102A900070477047704770B5044685690068C10685
:102AA00001D5302600E02026C00707D070BDD4E94C
:102AB000012130469047206A401C20626D1EF6D5E9
:102AC00070BD70B5044685690078C00707D170BD38
:102AD000D4E9012120209047206A401C20626D1E0D
:102AE000F6D570BD09684A0501D540B27047C905E1
:102AF000FCD500B2704709684A0501D5C0B27047DD
:102B0000C905FCD580B2704770B50C460546012A50
:102B100005D02878800600D5EA69002302E0012369
:102B200005E05B1C934202D2E05C0028F9D1A86961
:102B3000E618C01AA861286A184428622846FFF7D8
:102B4000AAFF04E0D5E9012114F8010B9047B44233
:102B5000F8D32846FFF7B5FF70BD2DE9F0470D46C5
:102B600099469246044600F124080168880604D577
:102B7000E06921F01001216000E00120A84201DDA0
:102B8000471B00E00027A1697A1902EB0900081A27
:102B9000A0612078C00602D42046FFF77CFF002603
:102BA00008E0D4E901211AF806009047206A401C89
:102BB000761C20624E45F4DB2078C0060AD52046FC
:102BC000FFF769FF06E0D4E9012130209047206A31
:102BD000401C2062381EA7F10107F4DC07E0D4E9AD
:102BE000012118F805009047206A401C2062281E29
:102BF000A5F10105F3DC2046FFF763FF207800060E
:102C000002D50220BDE8F0870120FBE711680268C9
:102C1000006A530501D508700AE0D30501D5088084
:102C200006E0130603D5C217C1E9000200E0086000
:102C30000120704701694A1C02610878704700B59D
:102C40008FB0CDE901310021059105497944CDE9E5
:102C5000031011466846FFF737FE0FB000BD0000B5
:102C6000E5FFFFFF0A6802F8010B0A6070470000E9
:102C7000074B70B50D467B44FFF7E1FF044628463D
:102C800000F05AFB10B14FF0FF3070BD204670BD10
:102C90006FF3FFFF2DE9FF5F15468A460446DFF814
:102CA000AC80F8440027D8E900103E46CDE900107A
:102CB00010E03AF816106A4602A800F041FB411CE9
:102CC00007D02178890603D5E269391891420DD8D9
:102CD0000744761C2078800602D5E069B84205DDFD
:102CE000AE42E6DB3AF816000028E2D1A069C01B2C
:102CF000A0612046FFF7CFFED8E90010CDE9001013
:102D0000002017E03AF818106A4602A800F018FBF5
:102D1000B0F1FF3F81460BD000250DF1080B05E017
:102D2000D4E901211BF8050090476D1C4D45F7D3F0
:102D300008F10100B0428046E4DB206A384420629A
:102D40002046FFF7BEFEBDE8FF9F000072110000A5
:102D50002DE9F0418046D21D22F007020025D2E97C
:102D60000002F52915A614D0011E72F1000106DA41
:102D70000023D0EB030063EB020211A608E0D8F8B1
:102D800000108B0701D50FA602E0490701D50EA65A
:102D900001251146002408F1240704E000F04EF854
:102DA00030323A55641C50EA0102F7D12B463246C4
:102DB00021464046BDE8F041FFF7CFBE00000000CD
:102DC0002D0000002B0000002000000030B4002186
:102DD00000F1240408E002F00705D208303542EA89
:102DE0004372DB086554491C52EA0305F3D10468B9
:102DF000002310A2250708D504F020040C4304D0BA
:102E0000C46901230CA2641EC46130BCFFF7A5BED7
:102E100010B5044621461068FFF76DFE02462046B5
:102E2000BDE810400023D1E7D21D22F00701D1E90F
:102E30000023CBE7000000003000000030B5B0F107
:102E40000A024FEA900E71F100034EEA817EB0EB68
:102E50000E0061EB91014FEA101E4EEA017E10EB6D
:102E60000E0041EB11114FEA102E4EEA016E10EBED
:102E70000E0041EB11214FEA104E4EEA014E10EBCD
:102E80000E0041EB1141401841F100014FEAD00022
:102E900040EA41704FEAD10110EB80054FEA81040E
:102EA00044EA907444EB01046D1944EB0404521B92
:102EB000A3414FF0000348BF0A3200D530BD401C8B
:102EC00041F1000130BD70472DE9FF4F0C461E4611
:102ED0004FF0FF378BB0D2E90001DDF860800A9037
:102EE0008A46C1F30A5505B93D46002108464FF010
:102EF0000000BAF1000F00F4400005DA00EB80009A
:102F00004FF4400101EA50004FEA9059B9F1010F26
:102F100000DDB9460A9850EA4A000ED044F6105037
:102F2000A5F2FF3545432F14B8F1000F1ED07542AE
:102F3000291E1EDDC9F100021CE0B8F1010F4FF09F
:102F4000000001D0302103E0F24305E02154401C91
:102F5000B042FBDB30460022002121540B99C1F81E
:102F60000880C1E900200FB0BDE8F08FBD1B6D1CCB
:102F7000DEE74A4600DA694206A800F073FA06ABBB
:102F800093E8070003AB83E8070050460A9900F076
:102F900021FB8DE80700A0F500501F380090039832
:102FA000002D09DD42F21F014A46084403A903909F
:102FB000684600F080FD08E0A0F500504A461F3842
:102FC00003A90390684600F08AFD8DE8070000041D
:102FD000000C03D04FF0FF30410800E01046B8F17C
:102FE000000F03D00022009215461EE0751E05D486
:102FF000FFF724FF303262556D1EF9D5B34601222A
:10300000084302D000227F1C04E02078302801D140
:1030100000227F1E002A099786D01DE0112D07DAB5
:10302000FFF70CFF303262556D1C50EA0102F5D1FA
:10303000084302D00098C8B10EE00021681E05E0E8
:10304000235C625C63542254401E491C8142F7DBBE
:10305000AB46A81B401E0990002004F80B000B98FB
:10306000099AC0F80880C0E9002B7CE711264FF0D0
:10307000000859E72DE9F04F88460446D21D22F09A
:10308000070191B0D1E90001CDE90A0100F05DFE30
:1030900002460B98C00F01D02D2007E02068810761
:1030A00001D52B2002E0202101EAC000032A09906B
:1030B00001D0072A05DB03464146204600F092F97D
:1030C0000BE12078800601D5E06900E00620B8F128
:1030D000650F814606D0B8F1660F18D0B8F1670FBA
:1030E00070D131E00020B9F1110F009001DB112304
:1030F00001E009F101030AAA01A90CA8FFF7E4FE07
:10310000DDE90C70002609F10105834647E0012046
:103110004B4600904FF000470AAA01A90CA8FFF700
:10312000D3FEDDE90DB00C995D46002610B909F11A
:1031300001000D18B9EB050003D4C0F1FF3609F109
:103140000105A5EB09002BE0B9F1010F01DA4FF001
:1031500001090020B9F1110F0090484601DD11234B
:1031600000E003460AAA01A90CA8FFF7ADFEDDE9BD
:103170000C704D4600268346207800070AD4AB45E4
:1031800000DA5D4601A8012D04DD411911F8011C8A
:10319000302907D04F4502DA17F1040F04DA012075
:1031A00082460FE06D1EEEE7002F02DCED1B3E4471
:1031B00003E0781CA84200DD7D1CB81B00F1010A69
:1031C0004FF000472078000703D4AA4501DB4FF0F9
:1031D000FF3A0021B7F1004F0DF143088DF843107D
:1031E00024D002202B23002F01DA7F422D230A2135
:1031F000021EA0F1010000DC5FB197FBF1FC97FB20
:10320000F1F201FB1C7C17460CF1300C08F801CDE3
:10321000EEE7A8F1010003702188090501D54521D9
:1032200000E06521A0F1010800F8011C09980FA930
:10323000A1EB0807FF1D00B10120411901EBEA7065
:10324000A1693844081A401EA0612078C00602D443
:103250002046FFF720FC099828B1D4E901219047C6
:10326000206A401C20622078C00622D52046FFF745
:1032700012FC1EE0002E04DBB34502DD01A8805DD8
:1032800000E03020D4E901219047206A401C2062F0
:10329000761CAAF101005FEA000A0AD100F09EF84C
:1032A000C0680168405CD4E901219047206A401C55
:1032B0002062281EA5F10105DCDC07E0D4E901212C
:1032C00018F8010B9047206A401C2062381EA7F1B5
:1032D0000107F3DC2046FFF7F4FB032011B043E6BF
:1032E00010B5436913B1AFF3008001E0FFF70CFCA8
:1032F000012010BD127800F124010A7000224A70EA
:103300000122EDE711684FF0FF32E9E710B543699C
:1033100013B1AFF3008001E0FFF7BCFC012010BD4A
:10332000128800F1240182840022C2840122EDE788
:1033300011684FF0FF32E9E7007B00F08000704732
:1033400070B516460C46054600F040F8036893F841
:103350000101012806D0FF2C0FD8185D68B10120AB
:103360002C7070BDD3F807013246214603F20713D3
:1033700003442846BDE8704018474FF0FF3070BD49
:10338000754600F0E3F8AE4605006946534620F066
:103390000700854618B020B5FDF710F8BDE82040BD
:1033A0004FF000064FF000074FF000084FF0000B01
:1033B00021F00701AC46ACE8C009ACE8C009ACE8B4
:1033C000C009ACE8C0098D467047000010B500F098
:1033D00005F8001D10BD00BFD5090000004870476A
:1033E000880300202DE9F0411F46044603260168AA
:1033F000072A01F4006004DB08B116A505E016A554
:1034000003E008B115A500E015A521F0100020602B
:10341000A069C01EA0610FB1401EA0612046FFF749
:103420003AFB4FB1D4E9012138469047206A401C4D
:103430002062C01C206206E0206AFAE7D4E901217C
:1034400015F8010B9047761EF8D22046FFF739FB9E
:10345000BDE8F0814E414E006E616E00494E46005F
:10346000696E66002DE9F047814616468AB03348FA
:1034700078440DC88DE80D0030487844801C03ACBA
:103480000DC884E80D0041F69B300844372190FBBD
:10349000F1F290FBF1F5A5F1800501FB12041B3C54
:1034A00002D56442012000E00020DFF890A08046B1
:1034B0000027FA44AAF1BE0A0DE0E00709D032461F
:1034C000684607EB47010AEB810100F008FB8DE835
:1034D000070064107F1C002CEFD1184F7F44AC3FD5
:1034E00018E0E80714D007EB04100DF1180A90E873
:1034F0000E008AE80E00C068F04201D198190890C9
:10350000324606A903A800F0EAFA03AB83E80700F5
:103510006D10641C002DE4D132466946B8F1000FED
:1035200003A802D000F0C7FA01E000F0D8FAC9E918
:103530000001C9F808200AB0BDE8F087280A000099
:103540000446AFF300802046FCF76DFE004870474C
:10355000680300204FF0013C50F8042B51F8043B65
:103560009A4221D1A2EB0C03934313EACC1317D157
:1035700050F8042B51F8043B9A4215D1A2EB0C03EE
:10358000934313EACC130BD150F8042B51F8043BAE
:103590009A4209D1A2EB0C03934313EACC13DBD07C
:1035A0004FF00000704700BFD01A01BAB1FA81F1A4
:1035B00001F0180122FA01F0CB40C1F12001DBB289
:1035C000C0B2C01A2CFA01F3D11A914311EAC31107
:1035D000E6D170475FEA400C08BF91F0000F4FEA58
:1035E0008C234FEAC12243EA51514FEA1C5018BFC5
:1035F00000F5F0404FEA300018BF41F000415FEAAB
:103600006C5C00F02980BCF1FF3F08BF40F08040B7
:103610007047130C06BF12044FF0100C4FF0000C53
:10362000130E04BF12020CF1080C130F04BF120199
:103630000CF1040C930F04BF92000CF1020CD30F99
:1036400004BF52000CF1010C11464FF00002A0F132
:103650001F00A0EB0C00704711F0004F08BF70472F
:1036600031F000413FF4D5AF0B0C06BF09044FF019
:10367000100C4FF0000C0B0E04BF09020CF1080CEB
:103680000B0F04BF09010CF1040C8B0F04BF890060
:103690000CF1020CCB0F04BF49000CF1010CCCF172
:1036A0002003A0EB0C0022FA03F302FA0CF241EA29
:1036B000030100F10100704720F07F4C80EA030015
:1036C00023F07F47ACEB070303F57C5300F0004089
:1036D00003F1FF032DE980494FEA154B09B44FEA86
:1036E000144325EA0B4E24EA03480FF2042606EBA6
:1036F000132749083E785FEA320203FB0667C7F5E5
:10370000000707FB06F64FEA54374FEAD64606F1A4
:10371000020607FB066CCCF1005C4FEA1C472CEA62
:10372000074C07FB06F40CFB06F504EB15464FEAC5
:10373000961634BF00204FF000404FEAD13706FB09
:1037400007FC4FEA1C4C0CFB0BF7D21B03FB0CF7DE
:1037500061EB07010CFB0EF7B0EB074072EB174271
:103760000CFB08F734BFA2EB0742B2EB074261EB58
:1037700017414FEA0C444FEA910706FB07FC4FEA5A
:103780001C4C0CFB0BF7B0EBC74072EB573203FB42
:103790000CF734BFA2EBC742B2EBC74261EB573123
:1037A0000CFB0EF7B0EBC70072EB57720CFB08F77F
:1037B00034BFA2EBC702B2EBC70261EB5771039FA4
:1037C0004FEA816141EA921104EBCC044FEAD13710
:1037D0004FEA826206FB07FC42EA90124FEA8060E1
:1037E0004FEA1C4C0CFB0BF7D21B03FB0CF761EBF5
:1037F00007010CFB0EF7B0EB074072EB17420CFB16
:1038000008F734BFA2EB0742B2EB074261EB174166
:103810004FEA8C554FEA910704EB9C2406FB07FC0A
:103820004FEA1C4C0CFB0BF7B0EBC74072EB573266
:1038300003FB0CF734BFA2EBC742B2EBC74261EB0C
:1038400057310CFB0EF7B0EBC70072EB57720CFB55
:1038500008F734BFA2EBC702B2EBC70261EB5771A6
:1038600015EB4C254FEA816141EA92114FEA8262E1
:103870004FEAD13742EA901206FB07FC44F10004FC
:103880004FEA80604FEA1C4C0CFB0BF7D21B03FB8A
:103890000CF761EB07010CFB0EF7B0EB074072EB86
:1038A00017420CFB08F734BFA2EB0742B2EB07420A
:1038B00061EB174115EB1C154FEA813141EA92414A
:1038C0004FEA823242EA90424FEA80304FEA0C7669
:1038D00044F1000448EA03434EEA0B484FF0000E5F
:1038E000B2EB080C71EB030724BF624639464EEB7E
:1038F0000E0E4FF0000B0018524149414BEB0B0BE1
:10390000B2EB080C71EB03077BF1000B24BF62469E
:1039100039464EEB0E0E4FF0000B00185241494154
:103920004BEB0B0BB2EB080C71EB03077BF1000BBD
:1039300024BF624639464EEB0E0E51EA020718BF0D
:1039400046F0010616EB0E7655F1000254F1000127
:1039500003D5BDE88901BDE80088BDE88901BDE85F
:103960000048B619524141EB0101A3F10103704730
:1039700080807F7E7D7C7B7A7978777676757473AC
:10398000727171706F6E6E6D6C6C6B6A6A6968686B
:10399000676666656464636362616160605F5F5E01
:1039A0005E5D5D5C5C5B5B5A5A5959585857575677
:1039B00056555555545453535252525151505050DC
:1039C0004F4F4F4E4E4D4D4D4C4C4C4B4B4B4A4A2E
:1039D0004A49494948484847474747464646454572
:1039E00045444444444343434342424242414141AB
:1039F000002B26D4770021D01CB54FEA370703B43B
:103A00004FF010004FF010014FF000000FBCBDE868
:103A100010400BF1010BBBF1010F08BF5FEA170764
:103A200022BF12F1010211F101014FF0004143F1F7
:103A3000000300F0004043EA00007047F9D3570844
:103A4000DAE746EA064613F1400F4FEA16461FDD55
:103A500013F1200FDFBF16430A46002120335B42DB
:103A6000C8D0C3F1200746EA064602FA07F74FEA34
:103A7000164646EA0706C3F1200722FA03F201FAC6
:103A800007F721FA03F14FF0000342EA0702B1E71A
:103A900046EA020646EA06464FEA164646EA0106A6
:103AA000BCBF46EA0646360C4FF000034FF000025A
:103AB0004FF000019EE72DE9C048934630B491E8ED
:103AC000380007C831EA400C48BF34EA430C03D53C
:103AD000FFF7F2FDFFF78CFFF0BCBDE800882DE991
:103AE000C048934630B491E8380007C810F0804FC2
:103AF00008BF13F0804F03D100F005F8FFF778FFFF
:103B0000F0BCBDE8008820F07F4780EA030023F086
:103B10007F4C07EB0C03A3F57C5300F00040A3F1AE
:103B2000FE0392F0000F00F0B38095F0000F00F05C
:103B300077802DE901494FEA11404FEA144621EA06
:103B4000004800FB06FC24EA064708FB06F607FBD4
:103B500008F800FB07F718EB06484CEB164C4FEA49
:103B6000124B18EB07484FEA15464CEB174022EA78
:103B70000B4E0BFB06FC25EA06470EFB06F607FB81
:103B80000EFE0BFB07F71EEB064E4CEB164C4FF0F0
:103B900000061EEB074E4CEB174B18EB0B0840F1E1
:103BA000000018EB0E0B58EB000840F100008F1AD4
:103BB0004FF000013CBFC943661B14BFB5EB040CBA
:103BC00000213CBFC943F61B4FEA17444EEA8E0E54
:103BD00027EA04454FEA1C4704FB07622CEA074C1E
:103BE00005FB07F70CFB05F604FB0CFC16EB074680
:103BF00042EB174216EB0C4642EB1C421BEB06064F
:103C000058EB0202414146EA9E0601D5BDE8018912
:103C1000B619524141EB0101A3F10103BDE801894D
:103C20004FEA14454FEA114724EA054621EA074CBA
:103C300005FB07F406FB07F70CFB06F105FB0CFC84
:103C400011EB074144EB17444FEA124711EB0C41CB
:103C500044EB1C4422EA074C05FB07F206FB07F77E
:103C60000CFB06F605FB0CFC16EB074642EB174275
:103C700016EB0C4642EB1C456A1854F1000148BF94
:103C80007047B619524141EB0101A3F1010370479E
:103C900095F0000F37D04FEA11424FEA144721EA5E
:103CA000024624EA074C02FB07F106FB07F70CFB70
:103CB00006F402FB0CFC14EB074441EB17414FEAFE
:103CC000154714EB0C4441EB1C4125EA074C02FB61
:103CD00007F506FB07F70CFB06F602FB0CFC16EBE0
:103CE000074645EB174516EB0C4645EB1C421219EF
:103CF00051F1000148BF7047B619524141EB010133
:103D0000A3F1010370474FEA14454FEA114724EA33
:103D1000054621EA074C05FB07F106FB07F70CFBFC
:103D200006F24FF0000605FB0CFC12EB074241EBDC
:103D3000174112EB0C4251EB1C4148BF70479218DF
:103D400041EB0101A3F101037047490050EAC12092
:103D500018BF04204A0D18BF40F0010040F2FF7266
:103D6000B2EB515F08BF40F00200012808BF0520F8
:103D7000704730380A2801D2012070470020704770
:103D800010B500290AD00878002807D005487844E3
:103D9000FFF7E0FB002801D0002010BD0248784466
:103DA00010BD0000460100003E01000010B50029D2
:103DB0000AD00878002807D005487844FFF7CAFBE6
:103DC000002801D0002010BD0248784410BD00003A
:103DD000360100002E010000FFF74CB930313233BC
:103DE000343536373839414243444546403058002F
:103DF0003031323334353637383961626364656661
:103E000040307800040000080000000000000002BC
:103E10000001000010000000000000000000000091
:103E200002400000000000A000000000054000006B
:103E3000000000C8000000000C4000000000409C92
:103E400000000000194000000020BCBE000000007F
:103E500034400000BFC91B8E00000004B5400000C4
:103E6000504BCFD06607E2CF010000006C4100004C
:103E70003E8251AADFEEA73401000000D9420000C3
:103E8000DCB5A0E23A301F97FFFFFFFFB44500000A
:103E9000FD25A0C8E9A3C14FFFFFFFFFFF3F0000C2
:103EA0000000008000000000FF3F000000000080D4
:103EB0000000000000400008000000205400000046
:103EC0002801000854400008540000207405000038
:103ED000440100081C00000043000000F8FFFFFF41
:103EE0000C0000000E0000000F0000002E0000007B
:103EF0001001000043000000F8FFFFFF00404040B9
:103F000040404040404041414141414040404040AC
:103F10004040404040404040404040404005020258
:103F20000202020202020202020202020220202017
:103F30002020202020202002020202020202909073
:103F40009090909010101010101010101010101071
:103F500010101010101010100202020202028888C5
:103F600088888888080808080808080808080808D1
:103F700008080808080808080202020240000000B9
:103F80000000000000000000000000000000000031
:103F90000000000000000000000000000000000021
:103FA0000000000000000000000000000000000011
:103FB0000000000000000000000000000000000001
:103FC00000000000000000000000000000000000F1
:103FD00000000000000000000000000000000000E1
:103FE00000000000000000000000000000000000D1
:103FF00000000000000000000000000000000000C1
:1040000000A24A04000000000000000001020304B6
:104010000607080902040608000000000102030464
:104020000102030406070809000000000000000068
:10403000000000000200000200000000000001017A
:10404000010D00010100000001000101000000005D
:04405000010100006A
:04000005080000ED02
:00000001FF
